:10000000008000204104000000000000000000000B
:1000100000000000000000000000000000000000E0
:1000200000000000000000000000000000000000D0
:1000300000000000000000000000000000000000C0
:1000400000000000000000000000000000000000B0
:10040000FFFFFFFFFFFFFFFFFFFFFFFFFEFFFFFFFD
:1004100048F20043C1F6FF731A780AB90120187038
:10042000704700BF48F20000C1F6FF7008B50368CE
:100430002BB140F20003C0F2000303B1984708BD9E
:1004400071B64FF000004FF000014FF000024FF086
:1004500000034FF000044FF000054FF000064FF08E
:1004600000074FF000084FF000094FF0000A4FF06E
:10047000000B4FF0000C4FF0000080F31488BFF326
:100480006F8F044880F30888034800B1804702F06A
:10049000D5BA0000008000209D04000080B500AFA8
:1004A000124B4CF22052DA81104B4DF62812DA81B1
:1004B0000E4B4FF4E9721A800D490D4B03F5805332
:1004C00003F138031B6843F4785201F5805303F1BC
:1004D00038031A604FF003004FF0030100F00AF8F0
:1004E00000F054F900F06EF980BD00BF0020054017
:1004F0000070044080B584B000AF02460B46FA712C
:10050000BB71FB79032B02D94FF0FF33E2E0BB79DB
:100510000F2B02D94FF0FF33DCE07149704B03F52C
:10052000805303F104031B6823F4803201F58053E8
:1005300003F104031A606A4B694A126822F400222C
:100540001A60684B4FF080021A706549644B03F5DE
:10055000805303F104031B6823F0010201F580536B
:1005600003F104031A60604B4FF020025A705E4B97
:100570004FF098021A705C4B5B4AD278D2B202F00C
:100580001F02D2B2DA70584B4FF001021A71564B6B
:100590004FF000025A7100BF534B9B79DBB203F05E
:1005A0000203002BF8D000BF4F4B9B79DBB203F066
:1005B0001003002BF8D100BF4B4B9B79DBB203F04B
:1005C0000C03082BF8D1484B4FF040025A7100BF82
:1005D000454B9B79DBB203F00C03082BF8D1424B5F
:1005E000BA7902F01F02D2B21A71FB79032B4FD8ED
:1005F00001A252F823F000BF090600002B060000FC
:100600004D0600006F0600004FF000004FF00001A3
:100610004FF000024FF0010300F070F8324B4FF042
:1006200040025A71314BFB6033E04FF000004FF055
:1006300000014FF000024FF0010300F05FF82A4B79
:100640004FF041025A712A4BFB6022E04FF000004C
:100650004FF001014FF001024FF0030300F04EF89C
:10066000214B4FF058025A71224BFB6011E04FF0C2
:1006700000004FF001014FF001024FF0030300F0C2
:100680003DF8194B4FF05A025A711B4BFB6000E0CA
:1006900000BF00BF144B9B79DBB203F02003002B9B
:1006A000F8D000BF104B9B79DBB203F04003002B66
:1006B000F8D00D4B0C4A1278D2B202F03F02D2B2FF
:1006C0001A7000BF084B9B79DBB203F00C030C2BB4
:1006D000F8D1FB68184607F11007BD4680BD00BF82
:1006E000007004400050064000400640006CDC02F0
:1006F00080F0FA0200D8B80500E1F50580B485B0B5
:1007000000AFF871B9717A713B711E4B1B68FB60C9
:100710001C4B1C4A126842F47F021A601A4BFA7989
:100720004FEA0271BA794FEA026202F07062114335
:100730007A794FEA025202F4700211433A794FEA91
:10074000024202F4702241EA020203F5825303F1ED
:1007500004031A604FF00003FB7205E0FB7ADBB282
:1007600003F10103DBB2FB72FB7ADBB23A799A4206
:10077000F4D8044BFA681A6007F11407BD4680BC30
:10078000704700BF00F001400070044080B400AF2B
:100790000A490A4B03F5805303F104031B6843F431
:1007A000805201F5805303F104031A60044B4FF4A7
:1007B000E0629A61BD4680BC704700BF0070044093
:1007C0000090044080B400AF084B084A02F5825202
:1007D000126842F0010203F582531A60044B4FF491
:1007E000A062DA60BD4680BC704700BF0070044064
:1007F00000B0044090B587B000AFF860B9607A608F
:10080000FB6843F48243A3F58243052B00F2868004
:1008100001A252F823F000BF31080000C108000017
:10082000650800009308000037080000EF0800008A
:100830006FF00503E1E0734B4FF440725A60714B67
:100840004FF440721A6070496F4B03F5805303F107
:1008500034031B6843F4006201F5805303F1340351
:100860001A605EE0694B4FF44072DA60674B4FF4F8
:1008700040729A606449644B03F5805303F134037A
:100880001B6843F4805201F5805303F134031A606E
:1008900047E05F4B4FF440721A645D4B4FF4407277
:1008A0005A645949584B03F5805303F134031B68CC
:1008B00043F4005201F5805303F134031A6030E031
:1008C000504B4FF440725A664E4B4FF440721A66CA
:1008D0004D494D4B03F5805303F128031B6843F446
:1008E000806201F5805303F128031A6019E0454B3B
:1008F0004FF440725A62434B4FF440721A624249BD
:10090000414B03F5805303F128031B6843F4006255
:1009100001F5805303F128031A6002E06FF002032F
:100920006BE0F86800F052FA78617B69DB78DBB243
:1009300023F00C03DAB27B69DA707B694FF00002B6
:100940009A707A69334B9A4214BF00230123DAB2BA
:100950007969314B994214BF00230123DBB242EA8B
:100960000303DBB2002B06D0BB684FF4FA6202FB34
:1009700003F3BB6005E0BB684FF47A7202FB03F33C
:10098000BB607B684FEA0313BA68B2FBF3F39BB218
:100990001C467B691B78DBB223F01F03FB7404F455
:1009A000F8534FEA1323DBB203F01F03DAB2FB7CE8
:1009B00042EA0303DAB27B691A70E2B27B695A70C9
:1009C000BB684FEA43127B684FEA0313B2FBF3F2B2
:1009D0004FEA4413D41A7B699B7ADBB223F01F03DE
:1009E000FB74E3B203F01F03DAB2FB7C42EA0303B9
:1009F000DAB27B699A724FF00003184607F11C07C0
:100A0000BD4690BD00D004400070044000C00440CA
:100A100000B0044000A0064000B0064080B485B09D
:100A200000AF78604FF00003FB6010E0FB6803F15B
:100A30000103FB60FA684FF6BB739A4207D97B68E3
:100A40001B681B681B79DBB203F020030FE07B6897
:100A50001B681B681B79DBB203F02003002BE5D079
:100A60007B681B681B681B79DBB203F02003184608
:100A700007F11407BD4680BC704700BF80B485B045
:100A800000AF78604FF00003FB6010E0FB6803F1FB
:100A90000103FB60FA684FF6BB739A4207D97B6883
:100AA0001B681B681B79DBB203F080030FE07B68D7
:100AB0001B681B681B79DBB2DBB25BB2002BE5DA8B
:100AC0007B681B681B681B79DBB203F08003184648
:100AD00007F11407BD4680BC704700BF80B483B0E7
:100AE00000AF78607B681B681B68DB79DBB2184657
:100AF00007F10C07BD4680BC704700BF80B483B0CF
:100B000000AF78600B46FB707B681B681B68FA7847
:100B1000DA7107F10C07BD4680BC704780B485B020
:100B200000AF78600E4BFB604FF00003BB600EE03F
:100B3000BB684FEAC3020B4BD218FB681A60FB6814
:100B400003F11403FB60BB6803F10103BB60BB68E6
:100B5000012BEDD907F11407BD4680BC704700BFDB
:100B6000E487FF1FDC2A000080B586B000AF786004
:100B700039607A6813464FEA83039B184FEA830370
:100B80001A46324BD3187B617B691B683B617B69DA
:100B90003A685A607B691B69002B0AD178684CF26D
:100BA00050314FF46142FFF725FE7B694FF001029F
:100BB0001A61786800F00AF9F860FB68DB78DBB24C
:100BC00043F00C03DAB2FB68DA707B6843F48243CB
:100BD000A3F58243052B27D801A252F823F000BFCA
:100BE000F90B0000110C0000290C0000290C00007A
:100BF000290C0000290C00004FF03D00144900F0C2
:100C000043F94FF03D004FF0020100F051F90BE0C5
:100C10004FF045000F4900F037F94FF045004FF015
:100C2000020100F045F900BFFB68DB78DBB243F05E
:100C30002003DAB2FB68DA704FF0450000F064F987
:100C40007B69184607F11807BD4680BDE487FF1F82
:100C5000590C0000E90C000080B582B000AF4FF0E5
:100C600000037B601F4B3B604FF03D0000F0E0F95C
:100C70007B6803F00E03A3F102030A2B24D801A220
:100C800052F823F0BD0C0000C90C0000B10C0000AC
:100C9000C90C0000C90C0000C90C0000C90C000000
:100CA000C90C0000C90C0000C90C0000C90C0000F0
:100CB0003B685B68184600F0BDFF06E03B685B6878
:100CC000184600F059FF00E000BF7B6803F0010305
:100CD000002BCDD04FF03D0000F016F907F10807CA
:100CE000BD4680BDE487FF1F80B582B000AF094BD1
:100CF0007B604FF0450000F09BF97B685B6818460D
:100D000000F098FF4FF0450000F0FEF807F10807EB
:100D1000BD4680BDF887FF1F80B582B000AF786008
:100D20000B46FB707868FFF7A9FE0346002B07D03F
:100D3000FB7878681946FFF7E1FE4FF0010301E008
:100D40004FF00003184607F10807BD4680BD00BFFD
:100D500080B582B000AF78607868FFF75FFE034629
:100D6000002B04D07868FFF7B9FE034601E04FF08E
:100D7000FF33184607F10807BD4680BD80B485B033
:100D800000AF786039607B681B68FB603B68012BB3
:100D900001D0022B00E000BF07F11407BD4680BC64
:100DA000704700BF80B485B000AF786039607B6861
:100DB0001B68FB603B68012B01D0022B00E000BFE9
:100DC00007F11407BD4680BC704700BF80B483B0F4
:100DD00000AF78607B6843F48243A3F58243052B20
:100DE0001AD801A252F823F0010E0000110E0000E3
:100DF000090E00000D0E0000050E0000150E00008B
:100E0000094B0BE0094B09E0094B07E0094B05E0F2
:100E1000094B03E0094B01E04FF00003184607F1CE
:100E20000C07BD4680BC704700A0064000B00640DD
:100E300000C0064000D0064000A00E4000B00E40AA
:100E400080B400AF61B6BD4680BC704780B400AFCF
:100E500062B6BD4680BC704780B483B000AF786096
:100E60007B6883F3118807F10C07BD4680BC70478F
:100E700080B400AFFEE700BF80B400AFFEE700BF64
:100E800080B400AFFEE700BF80B483B000AF7860ED
:100E900039607B684FEA8302044BD3183A681A60C2
:100EA00007F10C07BD4680BC704700BF0082FF1FE2
:100EB00080B483B000AF78600B46FB707B680F2B6B
:100EC0000BD87B68032B08D97A680D4BD318FA78B6
:100ED0004FEA0212D2B21A700CE07B680F2B09D9CC
:100EE0000849FB784FEA0313DAB27B68CB1803F5A5
:100EF00040731A7007F10C07BD4680BC704700BFF5
:100F000018ED00E000E100E080B485B000AF78604B
:100F10007B680F2B5AD97B68A3F110037B607B6839
:100F20004FEA5313FB607B6803F01F03BB60FB6851
:100F3000032B74D801A252F823F000BF4D0F00001C
:100F40006D0F00008F0F0000AD0F0000374BBA6827
:100F50004FF0010101FA02F2C3F88021334BBA6865
:100F60004FF0010101FA02F21A6059E02F4BBA6802
:100F70004FF0010101FA02F2C3F884212B4BBA6849
:100F80004FF0010101FA02F25A6000BF48E0274B1E
:100F9000BA684FF0010101FA02F2C3F88821234B2D
:100FA000BA684FF0010101FA02F29A601F4BBA6869
:100FB0004FF0010101FA02F2C3F88C211B4BBA6811
:100FC0004FF0010101FA02F2DA6029E07B68052B9B
:100FD0000ED0062B17D0042B22D14FF0E0234FF078
:100FE000E022D2F8242D42F48032C3F8242D17E0F9
:100FF0004FF0E0234FF0E022D2F8242D42F40032EB
:10100000C3F8242D0CE04FF0E0234FF0E022D2F89B
:10101000242D42F48022C3F8242D00BF00E000BF3D
:1010200007F11407BD4680BC704700BF00E100E037
:1010300080B485B000AF78607B680F2B3AD97B68AD
:10104000A3F110037B607B684FEA5313FB607B685E
:1010500003F01F03BB60FB68032B54D801A252F8B6
:1010600023F000BF751000008510000097100000ED
:10107000A5100000274BBA684FF0010101FA02F2F7
:101080001A6041E0234BBA684FF0010101FA02F205
:101090005A6000BF38E01F4BBA684FF0010101FAF7
:1010A00002F29A601B4BBA684FF0010101FA02F29A
:1010B000DA6029E07B68052B0ED0062B17D0042BB5
:1010C00022D14FF0E0234FF0E022D2F8242D22F479
:1010D0008032C3F8242D17E04FF0E0234FF0E022D8
:1010E000D2F8242D22F40032C3F8242D0CE04FF066
:1010F000E0234FF0E022D2F8242D22F48022C3F81E
:10110000242D00BF00E000BF07F11407BD4680BCDE
:10111000704700BF00E100E080B483B000AF7860AA
:101120004FF0E0237A68C3F8082D07F10C07BD469D
:1011300080BC704780B500AF1748FFF7EDFF4FF058
:101140000000FFF789FE4FF004004FF00001FFF7A9
:10115000AFFE4FF005004FF00001FFF7A9FE4FF082
:1011600006004FF00001FFF7A3FE4FF00C004FF018
:101170000001FFF79DFE4FF00E004FF00001FFF75A
:1011800097FE4FF00B004FF00001FFF791FEFFF7C5
:1011900057FEFFF75BFE80BD0082FF1F80B582B067
:1011A00000AF114B7B60114B4FF000021A60104BE7
:1011B0004FF000021A600E4B7A685A600C4B7A6846
:1011C0009A604FF00F000B49FFF75EFE4FF00F00E3
:1011D0004FF00001FFF76CFE054B4FF007021A605D
:1011E00007F10807BD4680BD40420F000C88FF1F75
:1011F00010E000E0F911000080B582B000AF074BAD
:101200001B687B6001F0C8FA054B1B6803F1010203
:10121000034B1A6007F10807BD4680BD10E000E0EF
:101220000C88FF1F80B485B000AF78607B6803F145
:1012300001034FEA0323B3F5407F16D0B3F5407F97
:1012400006DCB3F5807F0AD0B3F5007F0AD015E045
:10125000B3F5806F0CD0B3F5A06F0CD00EE00C4B43
:10126000FB600EE00B4BFB600BE00B4BFB6008E000
:101270000A4BFB6005E00A4BFB6002E04FF0000305
:1012800000E0FB68184607F11407BD4680BC7047B4
:101290000090044000A0044000B0044000C004409E
:1012A00000D0044080B485B000AF78607B6803F163
:1012B00001034FEA0323B3F5407F16D0B3F5407F17
:1012C00006DCB3F5807F0AD0B3F5007F0AD015E0C5
:1012D000B3F5806F0CD0B3F5A06F0CD00EE00C4BC3
:1012E000FB600EE00B4BFB600BE00B4BFB6008E080
:1012F0000A4BFB6005E00A4BFB6002E04FF0000385
:1013000000E0FB68184607F11407BD4680BC704733
:1013100000F00F4040F00F4080F00F40C0F00F4051
:1013200000F10F4080B586B000AFF860B960FA7187
:10133000BB71F868FFF7B6FF7861F868FFF772FFD6
:1013400038613B69002B02D16FF006033BE03B693B
:10135000BA684FF4807143F82210FB79012B24D135
:101360007B695A694FF00101BB6801FA03F31A4324
:101370007B695A61BB79012B0AD17B691A684FF0EE
:101380000101BB6801FA03F31A437B691A6018E094
:101390007B691A684FF00101BB6801FA03F36FEA39
:1013A00003031A407B691A600BE07B695A694FF0AE
:1013B0000101BB6801FA03F36FEA03031A407B697A
:1013C0005A614FF00003184607F11807BD4680BD6B
:1013D00080B586B000AFF860B9601346FB71F8685D
:1013E000FFF760FF7861FB79002B0CD17B691A68ED
:1013F0004FF00101BB6801FA03F36FEA03031A40DF
:101400007B691A6009E07B691A684FF00101BB68CB
:1014100001FA03F31A437B691A6007F11807BD4606
:1014200080BD00BF80B485B000AF78607B684FEAB4
:10143000031343F4445343F21012934209D043F28E
:101440002012934208D0B3F5445F08D1094BFB60EA
:1014500008E0094BFB6005E0084BFB6002E04FF041
:10146000000300E0FB68184607F11407BD4680BC86
:10147000704700BF008003400090034000800B4095
:1014800080B485B000AF78607B6803F101034FEA58
:101490000323B3F5007F10D0B3F5007F03DCB3F571
:1014A000807F07D012E0B3F5407F09D0B3F5806F9D
:1014B00009D00BE00A4BFB600BE00A4BFB6008E035
:1014C000094BFB6005E0094BFB6002E04FF00003B5
:1014D00000E0FB68184607F11407BD4680BC704762
:1014E0000090044000A0044000B0044000C004404C
:1014F00080B586B000AF0346FB80FB884FEA13231C
:101500009BB203F1FF337B61FB8803F0FF0303F120
:10151000FF333B617869FFF7B3FFF8601349134B62
:1015200003F5805303F138031A687B6903F109035B
:101530004FF0010000FA03F31A4301F5805303F161
:1015400038031A607B69012B06DDFB683A694FF4AA
:10155000806143F8221005E0FB683A694FF440715E
:1015600043F8221007F11807BD4680BD0070044003
:1015700080B483B000AF78601B491B4B03F58053E8
:1015800003F13C031B6843F0807201F5805303F1C3
:101590003C031A60154B4FF00A021A60134B4FF0D0
:1015A0000002DA64114B4FF000025A600F4B43F215
:1015B000D4029A600D4A7B6803F101034FEAC3032A
:1015C000D3184FF028025A60084A7B6803F10103E0
:1015D0004FEAC303D3184FF000029A6007F10C07DB
:1015E000BD4680BC704700BF0070044000800340CF
:1015F00080B483B000AF78601B491B4B03F5805368
:1016000003F13C031B6843F0007201F5805303F1C2
:101610003C031A60154B4FF00A021A60134B4FF04F
:101620000002DA64114B4FF000025A600F4B43F294
:10163000D4029A600D4A7B6803F101034FEAC303A9
:10164000D3184FF028025A60084A7B6803F101035F
:101650004FEAC303D3184FF000029A6007F10C075A
:10166000BD4680BC704700BF00700440009003403E
:1016700080B483B000AF78601B491B4B03F58053E7
:1016800003F130031B6843F0807201F5805303F1CE
:1016900030031A60154B4FF00B021A60134B4FF0DA
:1016A0000002DA64114B4FF000025A600F4B4FF208
:1016B00024429A600D4A7B6803F101034FEAC30399
:1016C000D3184FF028025A60084A7B6803F10103DF
:1016D0004FEAC303D3184FF000029A6007F10C07DA
:1016E000BD4680BC704700BF0070044000800B40C6
:1016F00080B584B000AF786039607868FFF792FEFB
:10170000F8607B684FEA031343F4445343F210122A
:1017100093425AD043F2201293427AD0B3F5445FF9
:1017200040F09B807B684FEA031343F444523B68CC
:1017300003F1010342EA0303A3F5445303F1FF332A
:10174000072B3BD801A252F823F000BF6D17000011
:1017500077170000811700008B1700009517000015
:101760009F170000A9170000B317000040F20230D5
:10177000FFF7BEFE25E040F20330FFF7B9FE20E0A0
:101780004FF44170FFF7B4FE1BE040F20530FFF765
:10179000AFFE16E040F20540FFF7AAFE11E040F26E
:1017A0000640FFF7A5FE0CE040F20740FFF7A0FE61
:1017B00007E04FF48160FFF79BFE02E06FF00A0341
:1017C00050E03868FFF7D4FE4AE07B684FEA031325
:1017D00043F444523B6803F1010342EA030343F23A
:1017E0001112934204D043F21212934205D009E041
:1017F00040F20120FFF77CFE07E040F20220FFF7F5
:1018000077FE02E06FF00A032CE03868FFF7F0FE85
:1018100026E07B684FEA031343F444523B6803F12C
:10182000010342EA030343F22112934204D043F23C
:101830002212934205D009E040F20B10FFF758FE48
:1018400007E04FF40570FFF753FE02E06FF00A0364
:1018500008E03868FFF70CFF02E06FF00B0301E0CF
:101860004FF00003184607F11007BD4680BD00BFCA
:1018700080B586B000AFF860B9607A60F868FFF7AD
:10188000D1FD7861FB68002B02DBFB68022B02DDD7
:101890006FF00B0322E0FB68002B08D1BB68002B24
:1018A00002DBBB68072B02DD6FF00A0316E0FB6862
:1018B000002B08D0BB68002B05D0BB68012B02D0E1
:1018C0006FF00A030AE07A69BB6803F101034FEA8B
:1018D000C303D3187A689A604FF00003184607F1E3
:1018E0001807BD4680BD00BF80B582B000AF7860EC
:1018F0003349334B03F5805303F138031B6843F03E
:10190000010201F5805303F138031A6000F060F81A
:101910007B68B3F58A7F04D040F20632934217D039
:101920002DE02749264B03F5805303F138031B684C
:1019300043F4007201F5805303F138031A60214B20
:101940004FF4C062DA64204B4FF010021A6019E0C5
:101950001B491B4B03F5805303F138031B6843F409
:10196000006201F5805303F138031A60174B4FF4FE
:1019700080625A61144B4FF020021A6002E06FF04F
:10198000090317E0104B104A526842F004025A60F3
:101990000D4B4FF6FF729A600B4B0B4A126842F0E8
:1019A00002021A60084B084A126842F001021A60EB
:1019B0004FF00003184607F10807BD4680BD00BF81
:1019C00000700440009004400000044000B0044057
:1019D00080B400AF074B4FF000021A60054B4FF088
:1019E00000025A60034B4FF000029A60BD4680BC73
:1019F000704700BF0000044080B584B000AF78603D
:101A00004FF00000FFF78AF8114BBB604FF0000366
:101A1000FB6012E0FB684FEA03120E4BD218BB6862
:101A20001A60BB684FF000029A60BB6803F1400384
:101A3000BB60FB6803F10103FB60FB68002BE9D08E
:101A40004FF0010000F008F807F11007BD4680BD17
:101A50000486FF1FEC2A000080B584B000AF7860D8
:101A60007B68002B02DB7B68012B02DD6FF0030338
:101A700058E07B6803F1FF334FEA83131A462C4B7F
:101A8000D318BB60BB689B68002B03D06FF00903C1
:101A9000FB6046E0BB686FF001021A61BB684FF063
:101AA00000029A61BB689A69BB685A61BB684FF0D3
:101AB0000002DA61BB684FF0000283F82020BB68A7
:101AC0004FF000025A62BB684FF001029A62BB6895
:101AD0004FF000021A63BB681A6BBB68DA62BB681E
:101AE0004FF000025A63BB684FF000029A63BB6874
:101AF0004FF00002DA63BB6878681946FFF734F8E4
:101B00000246BB685A60BB685B6818464FF002012A
:101B1000FFF734F9BB684FF001029A604FF0000301
:101B2000FB60FB68184607F11007BD4680BD00BF8B
:101B30000486FF1F80B582B000AF78600B46FB7053
:101B40007B685A68FB7810461946FFF7E5F80346AC
:101B5000002B02D04FF0010308E07B685B68184659
:101B60004FF00101FFF70AF94FF00003184607F1A3
:101B70000807BD4680BD00BF80B584B000AF786067
:101B80007B68FB60FB6893F82030002B0ED0FB686D
:101B90005A68FB6893F8203010461946FFF7BCF8E6
:101BA000FB684FF0000283F820203EE0FB689B6B4F
:101BB000002B33D1FB685B6B002B2FD0FB685A687E
:101BC000FB681B68D968FB68DB6ACB181B7810467A
:101BD0001946FFF7A1F8FB68DB6A03F10102FB6815
:101BE000DA62FB68DA6AFB681B689B689A4203D179
:101BF000FB684FF00002DA62FB685A6BFB681B68F7
:101C00009B689A4203D1FB684FF00002DA63FB68DD
:101C10005B6B03F1FF32FB685A6306E0FB685B68AD
:101C200018464FF00101FFF7BDF807F11007BD4658
:101C300080BD00BF80B584B000AF78607B68FB607A
:101C4000FB685B681846FFF783F80346FB72FB6886
:101C50001B6903F48073002B07D0FB7A132B04D18C
:101C6000FB684FF001029A63AAE0FB689B6B002BB4
:101C700045D0FB7A112B05D0FB681B6903F4007378
:101C8000002B3CD0FB684FF000029A63FB685B6B53
:101C9000002B00F09580FB681B68DA68FB68DB6A44
:101CA000D3181B78FB72FB7AF8681946FFF742FFDE
:101CB0000346002B00F08380FB68DB6A03F101021E
:101CC000FB68DA62FB68DA6AFB681B689B689A4209
:101CD00003D1FB684FF00002DA62FB685A6BFB68C5
:101CE0001B689B689A4203D1FB684FF00002DA63DD
:101CF000FB685B6B03F1FF32FB685A6360E0FB68D3
:101D00001B6903F48073002B02D0FB7A112B57D090
:101D1000FB68DA69FB681B681B689A4250D0FB6855
:101D20001B685A68FB689B69D318FA7A1A70FB68BB
:101D30009B6903F10102FB689A61FB689A69FB6881
:101D40001B681B689A4203D1FB684FF000029A613E
:101D5000FB68DB69002B03D1FB684FF000029A623D
:101D6000FB68DB6903F10102FB68DA61FB681B6950
:101D700003F48063002B23D0FB685B6A002B1FD128
:101D8000FB68D969FB681B681A6813464FEA43036E
:101D90009B184FEA9303994212D3F8684FF013014E
:101DA000FFF7C8FE0346002B04D1FB684FF0130277
:101DB00083F82020FB684FF001025A6200E000BF68
:101DC00007F11007BD4680BD80B582B000AF1F4B44
:101DD0003B604FF000037B600FE03B684FF0000278
:101DE0005A603B684FF0FF329A603B6803F10C0386
:101DF0003B607B6803F101037B607B68072BECD9B8
:101E00004FF0457000F02AF8114800F027F811480B
:101E100000F024F8104800F021F84FF003004FF0D4
:101E20000E014FF001024FF00003FFF77BFA4FF075
:101E300003004FF00D014FF001024FF00003FFF7D8
:101E400071FA07F10807BD4680BD00BF4486FF1F39
:101E50000100080502000A050300090580B586B0E7
:101E600000AF78604FF000037B617B684FEA03436B
:101E70004FEA13433B613B69002B02DB3B69072BB5
:101E800002DD6FF0030336E03A6913464FEA43037D
:101E90009B184FEA83031A46194BD318FB60FB6863
:101EA0005B68002B03D06FF009037B6122E07B6845
:101EB0004FEA234303F47F434FEA232303F1FF3226
:101EC0007B684FEA234303F0FF0303F1FF3310461F
:101ED00019464FF001024FF00103FFF723FAFB68A8
:101EE0004FF001025A60FB684FF001021A604FF098
:101EF00000037B617B69184607F11807BD4680BD6A
:101F00004486FF1F80B586B000AF78604FF00003B5
:101F10007B617B684FEA03434FEA13433B613B69B4
:101F2000002B02DB3B69072B02DD6FF0030330E07F
:101F30003A6913464FEA43039B184FEA83031A4654
:101F4000164BD318FB60FB685B68002B1DD07B68C9
:101F50004FEA234303F47F434FEA232303F1FF3285
:101F60007B684FEA234303F0FF0303F1FF3310467E
:101F700019464FF00002FFF72BFAFB684FF0000202
:101F80001A604FF000037B6102E06FF004037B6195
:101F90007B69184607F11807BD4680BD4486FF1FC0
:101FA00080B582B000AF284B3B604FF000037B60F0
:101FB0001FE03B684FF000021A713B684FF00002CF
:101FC0009A603B684FF00002DA603B684FF0000215
:101FD0001A613B684FF000025A613B684FF0FF32D4
:101FE0009A613B6803F11C033B607B6803F10103CA
:101FF0007B607B68012BDCD9144800F02BF8144877
:1020000000F028F84FF004004FF004014FF00102F7
:102010004FF00103FFF786F94FF000004FF0080181
:102020004FF001024FF00003FFF77CF907484FF033
:10203000000100F057F806484FF0000100F052F898
:1020400007F10807BD4680BDA486FF1F00000231CE
:102050000100013180B586B000AF78607B684FEA3F
:1020600003434FEA13433B613B69002B02DB3B69AF
:10207000012B02DD6FF003032DE03A6913464FEAAE
:10208000C3039B1A4FEA83031A46154BD318FB6010
:10209000FB685B69002B03D06FF009037B6119E0DB
:1020A0007B684FEA134303F0F0034FEA13131A4619
:1020B0007B684FEA134303F00F0303F1FF3310462D
:1020C0001946FFF715FBFB684FF001025A614FF00C
:1020D00000037B617B69184607F11807BD4680BD88
:1020E000A486FF1F80B586B000AF786039604FF0DE
:1020F00000037B617B684FEA03434FEA13433B6174
:102100003B69002B02DB3B69012B02DD6FF003030F
:1021100051E03B68642B03DD4FF064033B6006E055
:102120003B6813F1640F02DA6FF063033B603A69B6
:1021300013464FEAC3039B1A4FEA83031A46204B08
:10214000D318FB60FB685B69002B30D03B68002B29
:1021500003DB786800F036F806E0786800F052F8A3
:102160003B68C3F100033B603A6813464FEA4313F0
:102170009B1A4FEA83039B18BB607B684FEA1343AB
:1021800003F0F0034FEA131319467B684FEA134339
:1021900003F00F0303F1FF331A46BB6808461146EC
:1021A0001A46FFF765FB4FF000037B6102E06FF01A
:1021B00004037B617B69184607F11807BD4680BDA3
:1021C000A486FF1F80B582B000AF78607A680C4BA0
:1021D0009A4208D14FF004004FF004014FF0010281
:1021E000FFF7F6F807E04FF000004FF008014FF05E
:1021F0000002FFF7EDF807F10807BD4680BD00BFFC
:102200000000023180B582B000AF78607A680C4B74
:102210009A4208D14FF004004FF004014FF0000241
:10222000FFF7D6F807E04FF000004FF008014FF03D
:102230000102FFF7CDF807F10807BD4680BD00BFDA
:102240000000023180B582B000AF304B3B604FF0F0
:1022500000037B604BE07B68002B20D13B684FF094
:1022600080021A713B684FF00002DA803B684FF041
:1022700000029A603B684FF00002DA603B684FF062
:1022800000021A613B684FF000021A753B684FF07C
:1022900000029A613B684FF0FF32DA611FE03B6851
:1022A0004FF080021A713B684FF00002DA803B6801
:1022B0004FF000029A603B684FF00002DA603B6822
:1022C0004FF000021A613B684FF001021A753B683B
:1022D0004FF000029A613B684FF0FF32DA613B68D1
:1022E00003F120033B607B6803F101037B607B68A3
:1022F000012BB0D9064800F00DF805484FF0000159
:1023000000F04CF807F10807BD4680BDDC86FF1FD2
:102310000000013180B586B000AF78607B684FEA7D
:1023200003434FEA13433B613B69002B02DB3B69EC
:10233000012B02DD6FF0030328E03B694FEA4312F3
:10234000154BD318FB60FB689B69002B03D06FF023
:1023500009037B6119E07B684FEA134303F0F00344
:102360004FEA13131A467B684FEA134303F00F0337
:1023700003F1FF3310461946FFF7BAF9FB684FF037
:1023800001029A614FF000037B617B69184607F1F7
:102390001807BD4680BD00BFDC86FF1F80B586B034
:1023A00000AF78600B467B807B684FEA03434FEABF
:1023B0001343FB60FB68002B02DBFB68012B02DD93
:1023C0006FF0030383E0FB684FEA4312424BD318DC
:1023D000BB60BB689B69002B75D0BB681B7D002B65
:1023E0002BD1B7F90230282B03DD4FF028037B8077
:1023F00007E0B7F9023013F1280F02DA4FF6D8736D
:102400007B80B7F90230002B0BDAB7F902306FF09E
:10241000390202FB03F303F5405303F10C033B6164
:102420003AE0B7F902306FF0390202FB03F303F52B
:10243000405303F10C033B612EE0B7F902302D2B22
:1024400003DD4FF02D037B8007E0B7F9023013F175
:102450002D0F02DA4FF6D3737B80B7F90230002BD1
:102460000DDAB7F9022013464FEA03139B1A4FEA1D
:10247000430303F5125303F11F033B610CE0B7F96B
:10248000022013464FEA03139B1A4FEA430303F556
:10249000125303F11F033B617B684FEA134303F0C0
:1024A000F0034FEA131319467B684FEA134303F016
:1024B0000F0303F1FF331A463B69084611461A46DB
:1024C000FFF7D6F902E06FF004037B617B691846E1
:1024D00007F11807BD4680BDDC86FF1F80B584B0BC
:1024E00000AF294BBB604FF00003FB600FE0BB68FF
:1024F0004FF000021A60BB684FF0FF325A60BB68B1
:1025000003F10803BB60FB6803F10103FB60FB6898
:10251000092BECD91D4B7B604FF00003FB601FE0E3
:102520007B681B4A1A607B681A4A5A607B681A4AA1
:102530009A607B68194ADA607B68154A1A617B6881
:10254000144A5A617B68144A9A617B68134ADA61BB
:102550007B6803F120037B60FB6803F10103FB60F0
:10256000FB68002BDCD00A4800F01AF8094800F09C
:1025700017F8094800F014F8084800F011F807F1BE
:102580001007BD4680BD00BF1C87FF1F1088FF1FBE
:1025900002001D05030007010400080105000A01EF
:1025A00080B586B000AF78607B684FEA03434FEA9E
:1025B00013433B613B69002B02DB3B69092B02DDC6
:1025C0006FF003032DE03B694FEAC302174BD318AA
:1025D000FB60FB681B68002B03D06FF009037B6175
:1025E0001EE07B684FEA234303F47F434FEA232333
:1025F00003F1FF327B684FEA234303F0FF0303F14B
:10260000FF33104619464FF000024FF00003FEF76B
:1026100089FEFB684FF001021A604FF000037B61F6
:102620007B69184607F11807BD4680BD1C87FF1F50
:1026300080B584B000AF7860124BBB604FF00003F0
:10264000FB6013E0BB684FF000021A60BB684FF0FC
:10265000FF325A60BB684FF000029A60BB6803F11A
:102660000C03BB60FB6803F10103FB60FB68002BFC
:10267000E8D04FF04C5000F007F807F11007BD46C6
:1026800080BD00BF6C87FF1F80B586B000AF78604B
:102690007B684FEA03434FEA13433B613B69002BDE
:1026A00002DB3B69002B02DD6FF003031EE03A6999
:1026B00013464FEA43039B184FEA83031A460E4B17
:1026C000D318FB60FB681B68002B03D06FF0090375
:1026D0007B610AE040F20630FFF706F9FB684FF035
:1026E00001021A604FF000037B617B69184607F115
:1026F0001807BD4680BD00BF6C87FF1F80B487B040
:1027000000AF78604FF00003FB607B684FEA034343
:102710004FEA13437B617B69002B02DB7B69002B53
:1027200002DD6FF0030318E07A6913464FEA4303B2
:102730009B184FEA83031A460B4BD3183B613B6946
:102740001B68002B07D0094BDB68FB60FA683B690C
:102750009A60FB6801E06FF00403184607F11C075C
:10276000BD4680BC704700BF6C87FF1F000004405F
:1027700080B400AF074B074A126822F001021A60CA
:10278000044B044A126842F001021A60BD4680BC44
:10279000704700BF0000044080B582B000AF4FF02A
:1027A00000037B604FF04C50FFF7A8FF7860144B9C
:1027B0001A687B68D218124B1A607A6813464FEA7F
:1027C000C3039B1A4FEA43031A460E4BA3FB0213A3
:1027D0004FEA93039AB20C4B1A80FFF7C9FF084BDC
:1027E0001A680A4BA3FB0213D21A4FEA52029B1833
:1027F0004FEA5312064B1A6007F10807BD4680BD29
:102800007C87FF1FCDCCCCCC7887FF1FD5411DD452
:102810008087FF1F80B582B000AF204B3B604FF038
:1028200000037B600FE03B684FF000021A603B68DA
:102830004FF0FF325A603B6803F108033B607B684E
:1028400003F101037B607B680B2BECD9144800F08B
:102850003FF8144800F03CF8134800F039F81348EA
:1028600000F036F8124800F033F8124800F030F863
:10287000114800F02DF8114800F02AF8104800F037
:1028800027F8104800F024F80F4800F021F80F480E
:1028900000F01EF807F10807BD4680BD8487FF1FC2
:1028A00000000B02010007020200030203001D01E9
:1028B000040005020500090206000D0107000F01D2
:1028C00008000C0509000B050A000D050B001B058F
:1028D00080B586B000AF78607B684FEA03434FEA6B
:1028E00013433B613B69002B02DB3B690B2B02DD91
:1028F0006FF003032DE03B694FEAC302174BD31877
:10290000FB60FB681B68002B03D06FF009037B6141
:102910001EE07B684FEA234303F47F434FEA2323FF
:1029200003F1FF327B684FEA234303F0FF0303F117
:10293000FF33104619464FF000024FF00003FEF738
:10294000F1FCFB684FF001021A604FF000037B615D
:102950007B69184607F11807BD4680BD8487FF1FB5
:1029600080B592B000AF786039604FF000037B64AF
:102970004FF000033B644FF00003FB634FF0000394
:10298000BB634FF000037B634FF000033B634FF0EA
:102990000003FB624FF00003BB624FF000037B6259
:1029A0004FF000033B624FF00003FB614FF0000368
:1029B000FB764FF000037B614FF000033B614FF06B
:1029C0000003FB604FF00003BB60FEF7B3FBFEF7B4
:1029D000E5FBFFF7F9F9FFF781FD4FF00000FFF786
:1029E0000BF8FFF7DDFAFFF72DFC4FF00000FFF7C3
:1029F0001FFEFFF70FFF0348FFF784FA0248FFF7B7
:102A000081FAF8E702000A050300090508B500F09D
:102A10003DF8074800B10068064901B10968002285
:102A2000FFF79EFF044B0BB1AFF30080FEE700BF42
:102A300000000000000000000000000080B5114907
:102A4000114A1AE055689368D4689D4209D0002065
:102A500004E0F5E802670830E3E80267A042F8D135
:102A600000E01B191469002004E00830002600274C
:102A7000E3E80267A042F8D114320139E2D2FFF74D
:102A8000C5FF00BF010000001C2B000070B542F61E
:102A9000083642F60835C0F20006C0F20005761B83
:102AA000B61006D0002455F8043B01349847A642DE
:102AB000F9D142F60C3642F60835C0F20006C0F2F3
:102AC0000005761B00F01AF8B61006D0002455F861
:0C2AD000043B01349847A642F9D170BDC8
:102ADC0000A006403D00000000A00E404500000094
:102AEC00000100000484FF1F000100000485FF1F8B
:102AFC00F8B500BFF8BC08BC9E4670472504000022
:102B0C00F8B500BFF8BC08BC9E4670471104000025
:102B1C0000000000302B00000080FF1F00040000AC
:042B2C003004000071
:102B30000000000000000000000000000000000095
:102B40000000000000000000000000000000000085
:102B50000000000000000000000000000000000075
:102B60000000000000000000000000000000000065
:102B70000000000000000000000000000000000055
:102B80000000000000000000000000000000000045
:102B90000000000000000000000000000000000035
:102BA0000000000000000000000000000000000025
:102BB0000000000000000000000000000000000015
:102BC0000000000000000000000000000000000005
:102BD00000000000000000000000000000000000F5
:102BE00000000000000000000000000000000000E5
:102BF00000000000000000000000000000000000D5
:102C000000000000000000000000000000000000C4
:102C100000000000000000000000000000000000B4
:102C200000000000000000000000000000000000A4
:102C30000000000000000000000000000000000094
:102C40000000000000000000000000000000000084
:102C50000000000000000000000000000000000074
:102C60000000000000000000000000000000000064
:102C70000000000000000000000000000000000054
:102C80000000000000000000000000000000000044
:102C90000000000000000000000000000000000034
:102CA0000000000000000000000000000000000024
:102CB0000000000000000000000000000000000014
:102CC0000000000000000000000000000000000004
:102CD00000000000000000000000000000000000F4
:102CE00000000000000000000000000000000000E4
:102CF00000000000000000000000000000000000D4
:102D000000000000000000000000000000000000C3
:102D100000000000000000000000000000000000B3
:102D200000000000000000000000000000000000A3
:102D30000080002041040000710E0000790E0000A8
:102D4000810E0000810E0000810E0000810E000047
:102D5000810E0000810E0000810E0000810E000037
:102D6000810E0000810E0000810E0000810E000027
:102D7000810E0000810E0000810E0000810E000017
:102D8000810E0000810E0000810E0000810E000007
:102D9000810E0000810E0000810E0000810E0000F7
:102DA000810E0000810E0000810E0000810E0000E7
:102DB000810E0000810E0000810E0000810E0000D7
:102DC000810E0000810E0000810E0000810E0000C7
:102DD000810E0000810E0000810E0000810E0000B7
:102DE000810E0000810E0000810E0000810E0000A7
:102DF000810E0000810E0000810E0000810E000097
:102E0000810E0000810E0000810E0000810E000086
:102E1000810E0000810E0000810E0000810E000076
:102E2000810E0000810E0000810E0000810E000066
:102E3000810E0000810E0000810E0000810E000056
:102E4000810E0000810E0000810E0000810E000046
:102E5000810E0000810E0000810E0000810E000036
:102E6000810E0000810E0000810E0000810E000026
:102E7000810E0000810E0000810E0000810E000016
:102E8000810E0000810E0000810E0000810E000006
:102E9000810E0000810E0000810E0000810E0000F6
:102EA000810E0000810E0000810E0000810E0000E6
:102EB000810E0000810E0000810E0000810E0000D6
:102EC000810E0000810E0000810E0000810E0000C6
:102ED000810E0000810E0000810E0000810E0000B6
:102EE000810E0000810E0000810E0000810E0000A6
:102EF000810E0000810E0000810E0000810E000096
:102F0000810E0000810E0000810E0000810E000085
:102F1000810E0000810E0000810E0000810E000075
:102F2000810E0000810E0000810E0000810E000065
:0400000300000441B4
:00000001FF
